Archive member included to satisfy reference by file (symbol)

/home/mateus-trix/Ac6/SystemWorkbench/plugins/fr.ac6.mcu.externaltools.arm-none.linux64_1.16.0.201807130628/tools/compiler/bin/../lib/gcc/arm-none-eabi/7.2.1/thumb/v6-m/libgcc.a(_udivsi3.o)
                              StdPeriph_Driver/src/stm32f0xx_rcc.o (__aeabi_uidiv)
/home/mateus-trix/Ac6/SystemWorkbench/plugins/fr.ac6.mcu.externaltools.arm-none.linux64_1.16.0.201807130628/tools/compiler/bin/../lib/gcc/arm-none-eabi/7.2.1/thumb/v6-m/libgcc.a(_dvmd_tls.o)
                              /home/mateus-trix/Ac6/SystemWorkbench/plugins/fr.ac6.mcu.externaltools.arm-none.linux64_1.16.0.201807130628/tools/compiler/bin/../lib/gcc/arm-none-eabi/7.2.1/thumb/v6-m/libgcc.a(_udivsi3.o) (__aeabi_idiv0)
/home/mateus-trix/Ac6/SystemWorkbench/plugins/fr.ac6.mcu.externaltools.arm-none.linux64_1.16.0.201807130628/tools/compiler/bin/../lib/gcc/arm-none-eabi/7.2.1/../../../../arm-none-eabi/lib/thumb/v6-m/libc.a(lib_a-errno.o)
                              src/syscalls.o (__errno)
/home/mateus-trix/Ac6/SystemWorkbench/plugins/fr.ac6.mcu.externaltools.arm-none.linux64_1.16.0.201807130628/tools/compiler/bin/../lib/gcc/arm-none-eabi/7.2.1/../../../../arm-none-eabi/lib/thumb/v6-m/libc.a(lib_a-exit.o)
                              /home/mateus-trix/Ac6/SystemWorkbench/plugins/fr.ac6.mcu.externaltools.arm-none.linux64_1.16.0.201807130628/tools/compiler/bin/../lib/gcc/arm-none-eabi/7.2.1/../../../../arm-none-eabi/lib/thumb/v6-m/crt0.o (exit)
/home/mateus-trix/Ac6/SystemWorkbench/plugins/fr.ac6.mcu.externaltools.arm-none.linux64_1.16.0.201807130628/tools/compiler/bin/../lib/gcc/arm-none-eabi/7.2.1/../../../../arm-none-eabi/lib/thumb/v6-m/libc.a(lib_a-impure.o)
                              /home/mateus-trix/Ac6/SystemWorkbench/plugins/fr.ac6.mcu.externaltools.arm-none.linux64_1.16.0.201807130628/tools/compiler/bin/../lib/gcc/arm-none-eabi/7.2.1/../../../../arm-none-eabi/lib/thumb/v6-m/libc.a(lib_a-exit.o) (_global_impure_ptr)
/home/mateus-trix/Ac6/SystemWorkbench/plugins/fr.ac6.mcu.externaltools.arm-none.linux64_1.16.0.201807130628/tools/compiler/bin/../lib/gcc/arm-none-eabi/7.2.1/../../../../arm-none-eabi/lib/thumb/v6-m/libc.a(lib_a-init.o)
                              /home/mateus-trix/Ac6/SystemWorkbench/plugins/fr.ac6.mcu.externaltools.arm-none.linux64_1.16.0.201807130628/tools/compiler/bin/../lib/gcc/arm-none-eabi/7.2.1/../../../../arm-none-eabi/lib/thumb/v6-m/crt0.o (__libc_init_array)
/home/mateus-trix/Ac6/SystemWorkbench/plugins/fr.ac6.mcu.externaltools.arm-none.linux64_1.16.0.201807130628/tools/compiler/bin/../lib/gcc/arm-none-eabi/7.2.1/../../../../arm-none-eabi/lib/thumb/v6-m/libc.a(lib_a-memset.o)
                              /home/mateus-trix/Ac6/SystemWorkbench/plugins/fr.ac6.mcu.externaltools.arm-none.linux64_1.16.0.201807130628/tools/compiler/bin/../lib/gcc/arm-none-eabi/7.2.1/../../../../arm-none-eabi/lib/thumb/v6-m/crt0.o (memset)
/home/mateus-trix/Ac6/SystemWorkbench/plugins/fr.ac6.mcu.externaltools.arm-none.linux64_1.16.0.201807130628/tools/compiler/bin/../lib/gcc/arm-none-eabi/7.2.1/../../../../arm-none-eabi/lib/thumb/v6-m/libc.a(lib_a-__call_atexit.o)
                              /home/mateus-trix/Ac6/SystemWorkbench/plugins/fr.ac6.mcu.externaltools.arm-none.linux64_1.16.0.201807130628/tools/compiler/bin/../lib/gcc/arm-none-eabi/7.2.1/../../../../arm-none-eabi/lib/thumb/v6-m/libc.a(lib_a-exit.o) (__call_exitprocs)
/home/mateus-trix/Ac6/SystemWorkbench/plugins/fr.ac6.mcu.externaltools.arm-none.linux64_1.16.0.201807130628/tools/compiler/bin/../lib/gcc/arm-none-eabi/7.2.1/../../../../arm-none-eabi/lib/thumb/v6-m/libc.a(lib_a-atexit.o)
                              /home/mateus-trix/Ac6/SystemWorkbench/plugins/fr.ac6.mcu.externaltools.arm-none.linux64_1.16.0.201807130628/tools/compiler/bin/../lib/gcc/arm-none-eabi/7.2.1/../../../../arm-none-eabi/lib/thumb/v6-m/libc.a(lib_a-__call_atexit.o) (atexit)
/home/mateus-trix/Ac6/SystemWorkbench/plugins/fr.ac6.mcu.externaltools.arm-none.linux64_1.16.0.201807130628/tools/compiler/bin/../lib/gcc/arm-none-eabi/7.2.1/../../../../arm-none-eabi/lib/thumb/v6-m/libc.a(lib_a-fini.o)
                              /home/mateus-trix/Ac6/SystemWorkbench/plugins/fr.ac6.mcu.externaltools.arm-none.linux64_1.16.0.201807130628/tools/compiler/bin/../lib/gcc/arm-none-eabi/7.2.1/../../../../arm-none-eabi/lib/thumb/v6-m/libc.a(lib_a-__call_atexit.o) (__libc_fini_array)
/home/mateus-trix/Ac6/SystemWorkbench/plugins/fr.ac6.mcu.externaltools.arm-none.linux64_1.16.0.201807130628/tools/compiler/bin/../lib/gcc/arm-none-eabi/7.2.1/../../../../arm-none-eabi/lib/thumb/v6-m/libc.a(lib_a-lock.o)
                              /home/mateus-trix/Ac6/SystemWorkbench/plugins/fr.ac6.mcu.externaltools.arm-none.linux64_1.16.0.201807130628/tools/compiler/bin/../lib/gcc/arm-none-eabi/7.2.1/../../../../arm-none-eabi/lib/thumb/v6-m/libc.a(lib_a-__call_atexit.o) (__retarget_lock_acquire_recursive)
/home/mateus-trix/Ac6/SystemWorkbench/plugins/fr.ac6.mcu.externaltools.arm-none.linux64_1.16.0.201807130628/tools/compiler/bin/../lib/gcc/arm-none-eabi/7.2.1/../../../../arm-none-eabi/lib/thumb/v6-m/libc.a(lib_a-__atexit.o)
                              /home/mateus-trix/Ac6/SystemWorkbench/plugins/fr.ac6.mcu.externaltools.arm-none.linux64_1.16.0.201807130628/tools/compiler/bin/../lib/gcc/arm-none-eabi/7.2.1/../../../../arm-none-eabi/lib/thumb/v6-m/libc.a(lib_a-atexit.o) (__register_exitproc)

Allocating common symbols
Common symbol       size              file

__lock___atexit_recursive_mutex
                    0x1               /home/mateus-trix/Ac6/SystemWorkbench/plugins/fr.ac6.mcu.externaltools.arm-none.linux64_1.16.0.201807130628/tools/compiler/bin/../lib/gcc/arm-none-eabi/7.2.1/../../../../arm-none-eabi/lib/thumb/v6-m/libc.a(lib_a-lock.o)
__lock___arc4random_mutex
                    0x1               /home/mateus-trix/Ac6/SystemWorkbench/plugins/fr.ac6.mcu.externaltools.arm-none.linux64_1.16.0.201807130628/tools/compiler/bin/../lib/gcc/arm-none-eabi/7.2.1/../../../../arm-none-eabi/lib/thumb/v6-m/libc.a(lib_a-lock.o)
__lock___env_recursive_mutex
                    0x1               /home/mateus-trix/Ac6/SystemWorkbench/plugins/fr.ac6.mcu.externaltools.arm-none.linux64_1.16.0.201807130628/tools/compiler/bin/../lib/gcc/arm-none-eabi/7.2.1/../../../../arm-none-eabi/lib/thumb/v6-m/libc.a(lib_a-lock.o)
__lock___sinit_recursive_mutex
                    0x1               /home/mateus-trix/Ac6/SystemWorkbench/plugins/fr.ac6.mcu.externaltools.arm-none.linux64_1.16.0.201807130628/tools/compiler/bin/../lib/gcc/arm-none-eabi/7.2.1/../../../../arm-none-eabi/lib/thumb/v6-m/libc.a(lib_a-lock.o)
__lock___malloc_recursive_mutex
                    0x1               /home/mateus-trix/Ac6/SystemWorkbench/plugins/fr.ac6.mcu.externaltools.arm-none.linux64_1.16.0.201807130628/tools/compiler/bin/../lib/gcc/arm-none-eabi/7.2.1/../../../../arm-none-eabi/lib/thumb/v6-m/libc.a(lib_a-lock.o)
__lock___at_quick_exit_mutex
                    0x1               /home/mateus-trix/Ac6/SystemWorkbench/plugins/fr.ac6.mcu.externaltools.arm-none.linux64_1.16.0.201807130628/tools/compiler/bin/../lib/gcc/arm-none-eabi/7.2.1/../../../../arm-none-eabi/lib/thumb/v6-m/libc.a(lib_a-lock.o)
__lock___dd_hash_mutex
                    0x1               /home/mateus-trix/Ac6/SystemWorkbench/plugins/fr.ac6.mcu.externaltools.arm-none.linux64_1.16.0.201807130628/tools/compiler/bin/../lib/gcc/arm-none-eabi/7.2.1/../../../../arm-none-eabi/lib/thumb/v6-m/libc.a(lib_a-lock.o)
__lock___tz_mutex   0x1               /home/mateus-trix/Ac6/SystemWorkbench/plugins/fr.ac6.mcu.externaltools.arm-none.linux64_1.16.0.201807130628/tools/compiler/bin/../lib/gcc/arm-none-eabi/7.2.1/../../../../arm-none-eabi/lib/thumb/v6-m/libc.a(lib_a-lock.o)
__lock___sfp_recursive_mutex
                    0x1               /home/mateus-trix/Ac6/SystemWorkbench/plugins/fr.ac6.mcu.externaltools.arm-none.linux64_1.16.0.201807130628/tools/compiler/bin/../lib/gcc/arm-none-eabi/7.2.1/../../../../arm-none-eabi/lib/thumb/v6-m/libc.a(lib_a-lock.o)

Discarded input sections

 .text          0x0000000000000000        0x0 /home/mateus-trix/Ac6/SystemWorkbench/plugins/fr.ac6.mcu.externaltools.arm-none.linux64_1.16.0.201807130628/tools/compiler/bin/../lib/gcc/arm-none-eabi/7.2.1/thumb/v6-m/crti.o
 .data          0x0000000000000000        0x0 /home/mateus-trix/Ac6/SystemWorkbench/plugins/fr.ac6.mcu.externaltools.arm-none.linux64_1.16.0.201807130628/tools/compiler/bin/../lib/gcc/arm-none-eabi/7.2.1/thumb/v6-m/crti.o
 .bss           0x0000000000000000        0x0 /home/mateus-trix/Ac6/SystemWorkbench/plugins/fr.ac6.mcu.externaltools.arm-none.linux64_1.16.0.201807130628/tools/compiler/bin/../lib/gcc/arm-none-eabi/7.2.1/thumb/v6-m/crti.o
 .data          0x0000000000000000        0x4 /home/mateus-trix/Ac6/SystemWorkbench/plugins/fr.ac6.mcu.externaltools.arm-none.linux64_1.16.0.201807130628/tools/compiler/bin/../lib/gcc/arm-none-eabi/7.2.1/thumb/v6-m/crtbegin.o
 .text          0x0000000000000000       0x78 /home/mateus-trix/Ac6/SystemWorkbench/plugins/fr.ac6.mcu.externaltools.arm-none.linux64_1.16.0.201807130628/tools/compiler/bin/../lib/gcc/arm-none-eabi/7.2.1/../../../../arm-none-eabi/lib/thumb/v6-m/crt0.o
 .data          0x0000000000000000        0x0 /home/mateus-trix/Ac6/SystemWorkbench/plugins/fr.ac6.mcu.externaltools.arm-none.linux64_1.16.0.201807130628/tools/compiler/bin/../lib/gcc/arm-none-eabi/7.2.1/../../../../arm-none-eabi/lib/thumb/v6-m/crt0.o
 .bss           0x0000000000000000        0x0 /home/mateus-trix/Ac6/SystemWorkbench/plugins/fr.ac6.mcu.externaltools.arm-none.linux64_1.16.0.201807130628/tools/compiler/bin/../lib/gcc/arm-none-eabi/7.2.1/../../../../arm-none-eabi/lib/thumb/v6-m/crt0.o
 .ARM.extab     0x0000000000000000        0x0 /home/mateus-trix/Ac6/SystemWorkbench/plugins/fr.ac6.mcu.externaltools.arm-none.linux64_1.16.0.201807130628/tools/compiler/bin/../lib/gcc/arm-none-eabi/7.2.1/../../../../arm-none-eabi/lib/thumb/v6-m/crt0.o
 .ARM.exidx     0x0000000000000000        0x8 /home/mateus-trix/Ac6/SystemWorkbench/plugins/fr.ac6.mcu.externaltools.arm-none.linux64_1.16.0.201807130628/tools/compiler/bin/../lib/gcc/arm-none-eabi/7.2.1/../../../../arm-none-eabi/lib/thumb/v6-m/crt0.o
 .ARM.attributes
                0x0000000000000000       0x1b /home/mateus-trix/Ac6/SystemWorkbench/plugins/fr.ac6.mcu.externaltools.arm-none.linux64_1.16.0.201807130628/tools/compiler/bin/../lib/gcc/arm-none-eabi/7.2.1/../../../../arm-none-eabi/lib/thumb/v6-m/crt0.o
 .group         0x0000000000000000        0xc StdPeriph_Driver/src/stm32f0xx_adc.o
 .group         0x0000000000000000        0xc StdPeriph_Driver/src/stm32f0xx_adc.o
 .group         0x0000000000000000        0xc StdPeriph_Driver/src/stm32f0xx_adc.o
 .group         0x0000000000000000        0xc StdPeriph_Driver/src/stm32f0xx_adc.o
 .group         0x0000000000000000        0xc StdPeriph_Driver/src/stm32f0xx_adc.o
 .group         0x0000000000000000        0xc StdPeriph_Driver/src/stm32f0xx_adc.o
 .group         0x0000000000000000        0xc StdPeriph_Driver/src/stm32f0xx_adc.o
Memory Configuration

Name             Origin             Length             Attributes
FLASH            0x0000000008000000 0x0000000000010000 xr
RAM              0x0000000020000000 0x0000000000002000 xrw
*default*        0x0000000000000000 0xffffffffffffffff

Linker script and memory map

LOAD /home/mateus-trix/Ac6/SystemWorkbench/plugins/fr.ac6.mcu.externaltools.arm-none.linux64_1.16.0.201807130628/tools/compiler/bin/../lib/gcc/arm-none-eabi/7.2.1/thumb/v6-m/crti.o
LOAD /home/mateus-trix/Ac6/SystemWorkbench/plugins/fr.ac6.mcu.externaltools.arm-none.linux64_1.16.0.201807130628/tools/compiler/bin/../lib/gcc/arm-none-eabi/7.2.1/thumb/v6-m/crtbegin.o
LOAD /home/mateus-trix/Ac6/SystemWorkbench/plugins/fr.ac6.mcu.externaltools.arm-none.linux64_1.16.0.201807130628/tools/compiler/bin/../lib/gcc/arm-none-eabi/7.2.1/../../../../arm-none-eabi/lib/thumb/v6-m/crt0.o
LOAD StdPeriph_Driver/src/stm32f0xx_adc.o
LOAD StdPeriph_Driver/src/stm32f0xx_cec.o
LOAD StdPeriph_Driver/src/stm32f0xx_comp.o
LOAD StdPeriph_Driver/src/stm32f0xx_crc.o
LOAD StdPeriph_Driver/src/stm32f0xx_dac.o
LOAD StdPeriph_Driver/src/stm32f0xx_dbgmcu.o
LOAD StdPeriph_Driver/src/stm32f0xx_dma.o
LOAD StdPeriph_Driver/src/stm32f0xx_exti.o
LOAD StdPeriph_Driver/src/stm32f0xx_flash.o
LOAD StdPeriph_Driver/src/stm32f0xx_gpio.o
LOAD StdPeriph_Driver/src/stm32f0xx_i2c.o
LOAD StdPeriph_Driver/src/stm32f0xx_iwdg.o
LOAD StdPeriph_Driver/src/stm32f0xx_misc.o
LOAD StdPeriph_Driver/src/stm32f0xx_pwr.o
LOAD StdPeriph_Driver/src/stm32f0xx_rcc.o
LOAD StdPeriph_Driver/src/stm32f0xx_rtc.o
LOAD StdPeriph_Driver/src/stm32f0xx_spi.o
LOAD StdPeriph_Driver/src/stm32f0xx_syscfg.o
LOAD StdPeriph_Driver/src/stm32f0xx_tim.o
LOAD StdPeriph_Driver/src/stm32f0xx_usart.o
LOAD StdPeriph_Driver/src/stm32f0xx_wwdg.o
LOAD Utilities/stm32f0_discovery.o
LOAD src/delay.o
LOAD src/gpio.o
LOAD src/main.o
LOAD src/oneWireSlave.o
LOAD src/syscalls.o
LOAD src/system_stm32f0xx.o
LOAD startup/startup_stm32f0xx.o
LOAD /home/mateus-trix/Ac6/SystemWorkbench/plugins/fr.ac6.mcu.externaltools.arm-none.linux64_1.16.0.201807130628/tools/compiler/bin/../lib/gcc/arm-none-eabi/7.2.1/../../../../arm-none-eabi/lib/thumb/v6-m/libm.a
START GROUP
LOAD /home/mateus-trix/Ac6/SystemWorkbench/plugins/fr.ac6.mcu.externaltools.arm-none.linux64_1.16.0.201807130628/tools/compiler/bin/../lib/gcc/arm-none-eabi/7.2.1/thumb/v6-m/libgcc.a
LOAD /home/mateus-trix/Ac6/SystemWorkbench/plugins/fr.ac6.mcu.externaltools.arm-none.linux64_1.16.0.201807130628/tools/compiler/bin/../lib/gcc/arm-none-eabi/7.2.1/../../../../arm-none-eabi/lib/thumb/v6-m/libc.a
END GROUP
LOAD /home/mateus-trix/Ac6/SystemWorkbench/plugins/fr.ac6.mcu.externaltools.arm-none.linux64_1.16.0.201807130628/tools/compiler/bin/../lib/gcc/arm-none-eabi/7.2.1/thumb/v6-m/crtend.o
LOAD /home/mateus-trix/Ac6/SystemWorkbench/plugins/fr.ac6.mcu.externaltools.arm-none.linux64_1.16.0.201807130628/tools/compiler/bin/../lib/gcc/arm-none-eabi/7.2.1/thumb/v6-m/crtn.o
                0x0000000020002000                _estack = 0x20002000
                0x0000000000000000                _Min_Heap_Size = 0x0
                0x0000000000000080                _Min_Stack_Size = 0x80

.isr_vector     0x0000000008000000       0xc4
                0x0000000008000000                . = ALIGN (0x4)
 *(.isr_vector)
 .isr_vector    0x0000000008000000       0xc4 startup/startup_stm32f0xx.o
                0x0000000008000000                g_pfnVectors
                0x00000000080000c4                . = ALIGN (0x4)

.text           0x00000000080000c4      0xdf8
                0x00000000080000c4                . = ALIGN (0x4)
 *(.text)
 .text          0x00000000080000c4       0x48 /home/mateus-trix/Ac6/SystemWorkbench/plugins/fr.ac6.mcu.externaltools.arm-none.linux64_1.16.0.201807130628/tools/compiler/bin/../lib/gcc/arm-none-eabi/7.2.1/thumb/v6-m/crtbegin.o
 .text          0x000000000800010c      0x114 /home/mateus-trix/Ac6/SystemWorkbench/plugins/fr.ac6.mcu.externaltools.arm-none.linux64_1.16.0.201807130628/tools/compiler/bin/../lib/gcc/arm-none-eabi/7.2.1/thumb/v6-m/libgcc.a(_udivsi3.o)
                0x000000000800010c                __udivsi3
                0x000000000800010c                __aeabi_uidiv
                0x0000000008000218                __aeabi_uidivmod
 .text          0x0000000008000220        0x4 /home/mateus-trix/Ac6/SystemWorkbench/plugins/fr.ac6.mcu.externaltools.arm-none.linux64_1.16.0.201807130628/tools/compiler/bin/../lib/gcc/arm-none-eabi/7.2.1/thumb/v6-m/libgcc.a(_dvmd_tls.o)
                0x0000000008000220                __aeabi_ldiv0
                0x0000000008000220                __aeabi_idiv0
 *(.text*)
 .text.GPIO_Init
                0x0000000008000224      0x126 StdPeriph_Driver/src/stm32f0xx_gpio.o
                0x0000000008000224                GPIO_Init
 .text.GPIO_ReadInputDataBit
                0x000000000800034a       0x48 StdPeriph_Driver/src/stm32f0xx_gpio.o
                0x000000000800034a                GPIO_ReadInputDataBit
 .text.GPIO_SetBits
                0x0000000008000392       0x1e StdPeriph_Driver/src/stm32f0xx_gpio.o
                0x0000000008000392                GPIO_SetBits
 .text.GPIO_ResetBits
                0x00000000080003b0       0x1e StdPeriph_Driver/src/stm32f0xx_gpio.o
                0x00000000080003b0                GPIO_ResetBits
 *fill*         0x00000000080003ce        0x2 
 .text.RCC_AHBPeriphClockCmd
                0x00000000080003d0       0x40 StdPeriph_Driver/src/stm32f0xx_rcc.o
                0x00000000080003d0                RCC_AHBPeriphClockCmd
 .text.RCC_APB1PeriphClockCmd
                0x0000000008000410       0x40 StdPeriph_Driver/src/stm32f0xx_rcc.o
                0x0000000008000410                RCC_APB1PeriphClockCmd
 .text.TIM_TimeBaseInit
                0x0000000008000450       0xe4 StdPeriph_Driver/src/stm32f0xx_tim.o
                0x0000000008000450                TIM_TimeBaseInit
 .text.TIM_TimeBaseStructInit
                0x0000000008000534       0x30 StdPeriph_Driver/src/stm32f0xx_tim.o
                0x0000000008000534                TIM_TimeBaseStructInit
 .text.TIM_Cmd  0x0000000008000564       0x40 StdPeriph_Driver/src/stm32f0xx_tim.o
                0x0000000008000564                TIM_Cmd
 .text._init_us
                0x00000000080005a4       0x70 src/delay.o
                0x00000000080005a4                _init_us
 .text._stop_timer
                0x0000000008000614       0x1e src/delay.o
                0x0000000008000614                _stop_timer
 .text.Delay_us
                0x0000000008000632       0x32 src/delay.o
                0x0000000008000632                Delay_us
 .text.GPIO_Config
                0x0000000008000664       0xac src/gpio.o
                0x0000000008000664                GPIO_Config
 .text.main     0x0000000008000710       0x58 src/main.o
                0x0000000008000710                main
 .text.crc8     0x0000000008000768       0xaa src/oneWireSlave.o
                0x0000000008000768                crc8
 *fill*         0x0000000008000812        0x2 
 .text.OWS_drive_low
                0x0000000008000814       0x18 src/oneWireSlave.o
                0x0000000008000814                OWS_drive_low
 .text.OWS_drive_high
                0x000000000800082c       0x18 src/oneWireSlave.o
                0x000000000800082c                OWS_drive_high
 .text.OWS_drive_read
                0x0000000008000844       0x1c src/oneWireSlave.o
                0x0000000008000844                OWS_drive_read
 .text.OWS_write_bit
                0x0000000008000860       0x98 src/oneWireSlave.o
                0x0000000008000860                OWS_write_bit
 .text.OWS_read_bit
                0x00000000080008f8       0x36 src/oneWireSlave.o
                0x00000000080008f8                OWS_read_bit
 .text.OWS_write_byte
                0x000000000800092e       0x6c src/oneWireSlave.o
                0x000000000800092e                OWS_write_byte
 *fill*         0x000000000800099a        0x2 
 .text.OWS_read_byte
                0x000000000800099c       0x68 src/oneWireSlave.o
                0x000000000800099c                OWS_read_byte
 .text.OWS_present
                0x0000000008000a04       0x38 src/oneWireSlave.o
                0x0000000008000a04                OWS_present
 .text.OWS_wait_reset
                0x0000000008000a3c       0x6c src/oneWireSlave.o
                0x0000000008000a3c                OWS_wait_reset
 .text.RFID_to_iButton
                0x0000000008000aa8       0x74 src/oneWireSlave.o
                0x0000000008000aa8                RFID_to_iButton
 .text.send_iButton_code
                0x0000000008000b1c       0x60 src/oneWireSlave.o
                0x0000000008000b1c                send_iButton_code
 .text.SystemInit
                0x0000000008000b7c       0x8c src/system_stm32f0xx.o
                0x0000000008000b7c                SystemInit
 .text.SetSysClock
                0x0000000008000c08       0x94 src/system_stm32f0xx.o
 .text.Reset_Handler
                0x0000000008000c9c       0x50 startup/startup_stm32f0xx.o
                0x0000000008000c9c                Reset_Handler
 .text.Default_Handler
                0x0000000008000cec        0x2 startup/startup_stm32f0xx.o
                0x0000000008000cec                TIM1_CC_IRQHandler
                0x0000000008000cec                HardFault_Handler
                0x0000000008000cec                ADC1_COMP_IRQHandler
                0x0000000008000cec                SysTick_Handler
                0x0000000008000cec                PVD_IRQHandler
                0x0000000008000cec                PendSV_Handler
                0x0000000008000cec                NMI_Handler
                0x0000000008000cec                I2C1_IRQHandler
                0x0000000008000cec                SPI1_IRQHandler
                0x0000000008000cec                TIM6_DAC_IRQHandler
                0x0000000008000cec                EXTI2_3_IRQHandler
                0x0000000008000cec                I2C2_IRQHandler
                0x0000000008000cec                TIM17_IRQHandler
                0x0000000008000cec                RTC_IRQHandler
                0x0000000008000cec                TIM16_IRQHandler
                0x0000000008000cec                TIM3_IRQHandler
                0x0000000008000cec                EXTI4_15_IRQHandler
                0x0000000008000cec                RCC_IRQHandler
                0x0000000008000cec                DMA1_Channel1_IRQHandler
                0x0000000008000cec                Default_Handler
                0x0000000008000cec                CEC_IRQHandler
                0x0000000008000cec                TIM14_IRQHandler
                0x0000000008000cec                DMA1_Channel4_5_IRQHandler
                0x0000000008000cec                TIM15_IRQHandler
                0x0000000008000cec                EXTI0_1_IRQHandler
                0x0000000008000cec                SPI2_IRQHandler
                0x0000000008000cec                SVC_Handler
                0x0000000008000cec                TS_IRQHandler
                0x0000000008000cec                WWDG_IRQHandler
                0x0000000008000cec                TIM2_IRQHandler
                0x0000000008000cec                DMA1_Channel2_3_IRQHandler
                0x0000000008000cec                USART2_IRQHandler
                0x0000000008000cec                FLASH_IRQHandler
                0x0000000008000cec                USART1_IRQHandler
                0x0000000008000cec                TIM1_BRK_UP_TRG_COM_IRQHandler
 *fill*         0x0000000008000cee        0x2 
 .text.__libc_init_array
                0x0000000008000cf0       0x48 /home/mateus-trix/Ac6/SystemWorkbench/plugins/fr.ac6.mcu.externaltools.arm-none.linux64_1.16.0.201807130628/tools/compiler/bin/../lib/gcc/arm-none-eabi/7.2.1/../../../../arm-none-eabi/lib/thumb/v6-m/libc.a(lib_a-init.o)
                0x0000000008000cf0                __libc_init_array
 .text.startup.register_fini
                0x0000000008000d38       0x18 /home/mateus-trix/Ac6/SystemWorkbench/plugins/fr.ac6.mcu.externaltools.arm-none.linux64_1.16.0.201807130628/tools/compiler/bin/../lib/gcc/arm-none-eabi/7.2.1/../../../../arm-none-eabi/lib/thumb/v6-m/libc.a(lib_a-__call_atexit.o)
 .text.atexit   0x0000000008000d50       0x10 /home/mateus-trix/Ac6/SystemWorkbench/plugins/fr.ac6.mcu.externaltools.arm-none.linux64_1.16.0.201807130628/tools/compiler/bin/../lib/gcc/arm-none-eabi/7.2.1/../../../../arm-none-eabi/lib/thumb/v6-m/libc.a(lib_a-atexit.o)
                0x0000000008000d50                atexit
 .text.__libc_fini_array
                0x0000000008000d60       0x34 /home/mateus-trix/Ac6/SystemWorkbench/plugins/fr.ac6.mcu.externaltools.arm-none.linux64_1.16.0.201807130628/tools/compiler/bin/../lib/gcc/arm-none-eabi/7.2.1/../../../../arm-none-eabi/lib/thumb/v6-m/libc.a(lib_a-fini.o)
                0x0000000008000d60                __libc_fini_array
 .text.__retarget_lock_acquire_recursive
                0x0000000008000d94        0x4 /home/mateus-trix/Ac6/SystemWorkbench/plugins/fr.ac6.mcu.externaltools.arm-none.linux64_1.16.0.201807130628/tools/compiler/bin/../lib/gcc/arm-none-eabi/7.2.1/../../../../arm-none-eabi/lib/thumb/v6-m/libc.a(lib_a-lock.o)
                0x0000000008000d94                __retarget_lock_acquire_recursive
 .text.__retarget_lock_release_recursive
                0x0000000008000d98        0x4 /home/mateus-trix/Ac6/SystemWorkbench/plugins/fr.ac6.mcu.externaltools.arm-none.linux64_1.16.0.201807130628/tools/compiler/bin/../lib/gcc/arm-none-eabi/7.2.1/../../../../arm-none-eabi/lib/thumb/v6-m/libc.a(lib_a-lock.o)
                0x0000000008000d98                __retarget_lock_release_recursive
 .text.__register_exitproc
                0x0000000008000d9c       0xf4 /home/mateus-trix/Ac6/SystemWorkbench/plugins/fr.ac6.mcu.externaltools.arm-none.linux64_1.16.0.201807130628/tools/compiler/bin/../lib/gcc/arm-none-eabi/7.2.1/../../../../arm-none-eabi/lib/thumb/v6-m/libc.a(lib_a-__atexit.o)
                0x0000000008000d9c                __register_exitproc
 *(.rodata)
 .rodata        0x0000000008000e90        0xe src/main.o
 *(.rodata*)
 *fill*         0x0000000008000e9e        0x2 
 .rodata._global_impure_ptr
                0x0000000008000ea0        0x4 /home/mateus-trix/Ac6/SystemWorkbench/plugins/fr.ac6.mcu.externaltools.arm-none.linux64_1.16.0.201807130628/tools/compiler/bin/../lib/gcc/arm-none-eabi/7.2.1/../../../../arm-none-eabi/lib/thumb/v6-m/libc.a(lib_a-impure.o)
                0x0000000008000ea0                _global_impure_ptr
 *(.glue_7)
 .glue_7        0x0000000008000ea4        0x0 linker stubs
 *(.glue_7t)
 .glue_7t       0x0000000008000ea4        0x0 linker stubs
 *(.eh_frame)
 .eh_frame      0x0000000008000ea4        0x0 /home/mateus-trix/Ac6/SystemWorkbench/plugins/fr.ac6.mcu.externaltools.arm-none.linux64_1.16.0.201807130628/tools/compiler/bin/../lib/gcc/arm-none-eabi/7.2.1/thumb/v6-m/crtbegin.o
 *(.init)
 .init          0x0000000008000ea4        0x4 /home/mateus-trix/Ac6/SystemWorkbench/plugins/fr.ac6.mcu.externaltools.arm-none.linux64_1.16.0.201807130628/tools/compiler/bin/../lib/gcc/arm-none-eabi/7.2.1/thumb/v6-m/crti.o
                0x0000000008000ea4                _init
 .init          0x0000000008000ea8        0x8 /home/mateus-trix/Ac6/SystemWorkbench/plugins/fr.ac6.mcu.externaltools.arm-none.linux64_1.16.0.201807130628/tools/compiler/bin/../lib/gcc/arm-none-eabi/7.2.1/thumb/v6-m/crtn.o
 *(.fini)
 .fini          0x0000000008000eb0        0x4 /home/mateus-trix/Ac6/SystemWorkbench/plugins/fr.ac6.mcu.externaltools.arm-none.linux64_1.16.0.201807130628/tools/compiler/bin/../lib/gcc/arm-none-eabi/7.2.1/thumb/v6-m/crti.o
                0x0000000008000eb0                _fini
 .fini          0x0000000008000eb4        0x8 /home/mateus-trix/Ac6/SystemWorkbench/plugins/fr.ac6.mcu.externaltools.arm-none.linux64_1.16.0.201807130628/tools/compiler/bin/../lib/gcc/arm-none-eabi/7.2.1/thumb/v6-m/crtn.o
                0x0000000008000ebc                . = ALIGN (0x4)
                0x0000000008000ebc                _etext = .

.vfp11_veneer   0x0000000008000ebc        0x0
 .vfp11_veneer  0x0000000008000ebc        0x0 linker stubs

.v4_bx          0x0000000008000ebc        0x0
 .v4_bx         0x0000000008000ebc        0x0 linker stubs

.iplt           0x0000000008000ebc        0x0
 .iplt          0x0000000008000ebc        0x0 /home/mateus-trix/Ac6/SystemWorkbench/plugins/fr.ac6.mcu.externaltools.arm-none.linux64_1.16.0.201807130628/tools/compiler/bin/../lib/gcc/arm-none-eabi/7.2.1/thumb/v6-m/crtbegin.o

.rel.dyn        0x0000000008000ebc        0x0
 .rel.iplt      0x0000000008000ebc        0x0 /home/mateus-trix/Ac6/SystemWorkbench/plugins/fr.ac6.mcu.externaltools.arm-none.linux64_1.16.0.201807130628/tools/compiler/bin/../lib/gcc/arm-none-eabi/7.2.1/thumb/v6-m/crtbegin.o

.ARM.extab
 *(.ARM.extab* .gnu.linkonce.armextab.*)

.ARM            0x0000000008000ebc        0x0
                0x0000000008000ebc                __exidx_start = .
 *(.ARM.exidx*)
                0x0000000008000ebc                __exidx_end = .

.preinit_array  0x0000000008000ebc        0x0
                0x0000000008000ebc                PROVIDE (__preinit_array_start, .)
 *(.preinit_array*)
                0x0000000008000ebc                PROVIDE (__preinit_array_end, .)

.init_array     0x0000000008000ebc        0x8
                0x0000000008000ebc                PROVIDE (__init_array_start, .)
 *(SORT_BY_NAME(.init_array.*))
 .init_array.00000
                0x0000000008000ebc        0x4 /home/mateus-trix/Ac6/SystemWorkbench/plugins/fr.ac6.mcu.externaltools.arm-none.linux64_1.16.0.201807130628/tools/compiler/bin/../lib/gcc/arm-none-eabi/7.2.1/../../../../arm-none-eabi/lib/thumb/v6-m/libc.a(lib_a-__call_atexit.o)
 *(.init_array*)
 .init_array    0x0000000008000ec0        0x4 /home/mateus-trix/Ac6/SystemWorkbench/plugins/fr.ac6.mcu.externaltools.arm-none.linux64_1.16.0.201807130628/tools/compiler/bin/../lib/gcc/arm-none-eabi/7.2.1/thumb/v6-m/crtbegin.o
                0x0000000008000ec4                PROVIDE (__init_array_end, .)

.fini_array     0x0000000008000ec4        0x4
                0x0000000008000ec4                PROVIDE (__fini_array_start, .)
 *(SORT_BY_NAME(.fini_array.*))
 *(.fini_array*)
 .fini_array    0x0000000008000ec4        0x4 /home/mateus-trix/Ac6/SystemWorkbench/plugins/fr.ac6.mcu.externaltools.arm-none.linux64_1.16.0.201807130628/tools/compiler/bin/../lib/gcc/arm-none-eabi/7.2.1/thumb/v6-m/crtbegin.o
                0x0000000008000ec8                PROVIDE (__fini_array_end, .)
                0x0000000008000ec8                _sidata = LOADADDR (.data)

.data           0x0000000020000000      0x444 load address 0x0000000008000ec8
                0x0000000020000000                . = ALIGN (0x4)
                0x0000000020000000                _sdata = .
 *(.data)
 .data          0x0000000020000000       0x14 src/system_stm32f0xx.o
                0x0000000020000000                SystemCoreClock
                0x0000000020000004                AHBPrescTable
 *(.data*)
 *fill*         0x0000000020000014        0x4 
 .data.impure_data
                0x0000000020000018      0x428 /home/mateus-trix/Ac6/SystemWorkbench/plugins/fr.ac6.mcu.externaltools.arm-none.linux64_1.16.0.201807130628/tools/compiler/bin/../lib/gcc/arm-none-eabi/7.2.1/../../../../arm-none-eabi/lib/thumb/v6-m/libc.a(lib_a-impure.o)
 .data.__atexit_recursive_mutex
                0x0000000020000440        0x4 /home/mateus-trix/Ac6/SystemWorkbench/plugins/fr.ac6.mcu.externaltools.arm-none.linux64_1.16.0.201807130628/tools/compiler/bin/../lib/gcc/arm-none-eabi/7.2.1/../../../../arm-none-eabi/lib/thumb/v6-m/libc.a(lib_a-__call_atexit.o)
                0x0000000020000440                __atexit_recursive_mutex
                0x0000000020000444                . = ALIGN (0x4)
                0x0000000020000444                _edata = .

.igot.plt       0x0000000020000444        0x0 load address 0x000000000800130c
 .igot.plt      0x0000000020000444        0x0 /home/mateus-trix/Ac6/SystemWorkbench/plugins/fr.ac6.mcu.externaltools.arm-none.linux64_1.16.0.201807130628/tools/compiler/bin/../lib/gcc/arm-none-eabi/7.2.1/thumb/v6-m/crtbegin.o
                0x0000000020000444                . = ALIGN (0x4)

.bss            0x0000000020000444       0x48 load address 0x000000000800130c
                0x0000000020000444                _sbss = .
                0x0000000020000444                __bss_start__ = _sbss
 *(.bss)
 .bss           0x0000000020000444       0x1c /home/mateus-trix/Ac6/SystemWorkbench/plugins/fr.ac6.mcu.externaltools.arm-none.linux64_1.16.0.201807130628/tools/compiler/bin/../lib/gcc/arm-none-eabi/7.2.1/thumb/v6-m/crtbegin.o
 .bss           0x0000000020000460        0x8 src/oneWireSlave.o
 *(.bss*)
 *(COMMON)
 COMMON         0x0000000020000468       0x21 /home/mateus-trix/Ac6/SystemWorkbench/plugins/fr.ac6.mcu.externaltools.arm-none.linux64_1.16.0.201807130628/tools/compiler/bin/../lib/gcc/arm-none-eabi/7.2.1/../../../../arm-none-eabi/lib/thumb/v6-m/libc.a(lib_a-lock.o)
                0x0000000020000468                __lock___atexit_recursive_mutex
                0x000000002000046c                __lock___arc4random_mutex
                0x0000000020000470                __lock___env_recursive_mutex
                0x0000000020000474                __lock___sinit_recursive_mutex
                0x0000000020000478                __lock___malloc_recursive_mutex
                0x000000002000047c                __lock___at_quick_exit_mutex
                0x0000000020000480                __lock___dd_hash_mutex
                0x0000000020000484                __lock___tz_mutex
                0x0000000020000488                __lock___sfp_recursive_mutex
                0x000000002000048c                . = ALIGN (0x4)
 *fill*         0x0000000020000489        0x3 
                0x000000002000048c                _ebss = .
                0x000000002000048c                __bss_end__ = _ebss

._user_heap_stack
                0x000000002000048c       0x84 load address 0x000000000800130c
                0x0000000020000490                . = ALIGN (0x8)
 *fill*         0x000000002000048c        0x4 
                0x0000000020000490                PROVIDE (end, .)
                [!provide]                        PROVIDE (_end, .)
                0x0000000020000490                . = (. + _Min_Heap_Size)
                0x0000000020000510                . = (. + _Min_Stack_Size)
 *fill*         0x0000000020000490       0x80 
                0x0000000020000510                . = ALIGN (0x8)

.ARM.attributes
                0x0000000000000000       0x28
 *(.ARM.attributes)
 .ARM.attributes
                0x0000000000000000       0x1e /home/mateus-trix/Ac6/SystemWorkbench/plugins/fr.ac6.mcu.externaltools.arm-none.linux64_1.16.0.201807130628/tools/compiler/bin/../lib/gcc/arm-none-eabi/7.2.1/thumb/v6-m/crti.o
 .ARM.attributes
                0x000000000000001e       0x2c /home/mateus-trix/Ac6/SystemWorkbench/plugins/fr.ac6.mcu.externaltools.arm-none.linux64_1.16.0.201807130628/tools/compiler/bin/../lib/gcc/arm-none-eabi/7.2.1/thumb/v6-m/crtbegin.o
 .ARM.attributes
                0x000000000000004a       0x31 StdPeriph_Driver/src/stm32f0xx_gpio.o
 .ARM.attributes
                0x000000000000007b       0x31 StdPeriph_Driver/src/stm32f0xx_rcc.o
 .ARM.attributes
                0x00000000000000ac       0x31 StdPeriph_Driver/src/stm32f0xx_tim.o
 .ARM.attributes
                0x00000000000000dd       0x31 src/delay.o
 .ARM.attributes
                0x000000000000010e       0x31 src/gpio.o
 .ARM.attributes
                0x000000000000013f       0x31 src/main.o
 .ARM.attributes
                0x0000000000000170       0x31 src/oneWireSlave.o
 .ARM.attributes
                0x00000000000001a1       0x31 src/system_stm32f0xx.o
 .ARM.attributes
                0x00000000000001d2       0x21 startup/startup_stm32f0xx.o
 .ARM.attributes
                0x00000000000001f3       0x1e /home/mateus-trix/Ac6/SystemWorkbench/plugins/fr.ac6.mcu.externaltools.arm-none.linux64_1.16.0.201807130628/tools/compiler/bin/../lib/gcc/arm-none-eabi/7.2.1/thumb/v6-m/libgcc.a(_udivsi3.o)
 .ARM.attributes
                0x0000000000000211       0x1e /home/mateus-trix/Ac6/SystemWorkbench/plugins/fr.ac6.mcu.externaltools.arm-none.linux64_1.16.0.201807130628/tools/compiler/bin/../lib/gcc/arm-none-eabi/7.2.1/thumb/v6-m/libgcc.a(_dvmd_tls.o)
 .ARM.attributes
                0x000000000000022f       0x2c /home/mateus-trix/Ac6/SystemWorkbench/plugins/fr.ac6.mcu.externaltools.arm-none.linux64_1.16.0.201807130628/tools/compiler/bin/../lib/gcc/arm-none-eabi/7.2.1/../../../../arm-none-eabi/lib/thumb/v6-m/libc.a(lib_a-impure.o)
 .ARM.attributes
                0x000000000000025b       0x2c /home/mateus-trix/Ac6/SystemWorkbench/plugins/fr.ac6.mcu.externaltools.arm-none.linux64_1.16.0.201807130628/tools/compiler/bin/../lib/gcc/arm-none-eabi/7.2.1/../../../../arm-none-eabi/lib/thumb/v6-m/libc.a(lib_a-init.o)
 .ARM.attributes
                0x0000000000000287       0x2c /home/mateus-trix/Ac6/SystemWorkbench/plugins/fr.ac6.mcu.externaltools.arm-none.linux64_1.16.0.201807130628/tools/compiler/bin/../lib/gcc/arm-none-eabi/7.2.1/../../../../arm-none-eabi/lib/thumb/v6-m/libc.a(lib_a-__call_atexit.o)
 .ARM.attributes
                0x00000000000002b3       0x2c /home/mateus-trix/Ac6/SystemWorkbench/plugins/fr.ac6.mcu.externaltools.arm-none.linux64_1.16.0.201807130628/tools/compiler/bin/../lib/gcc/arm-none-eabi/7.2.1/../../../../arm-none-eabi/lib/thumb/v6-m/libc.a(lib_a-atexit.o)
 .ARM.attributes
                0x00000000000002df       0x2c /home/mateus-trix/Ac6/SystemWorkbench/plugins/fr.ac6.mcu.externaltools.arm-none.linux64_1.16.0.201807130628/tools/compiler/bin/../lib/gcc/arm-none-eabi/7.2.1/../../../../arm-none-eabi/lib/thumb/v6-m/libc.a(lib_a-fini.o)
 .ARM.attributes
                0x000000000000030b       0x2c /home/mateus-trix/Ac6/SystemWorkbench/plugins/fr.ac6.mcu.externaltools.arm-none.linux64_1.16.0.201807130628/tools/compiler/bin/../lib/gcc/arm-none-eabi/7.2.1/../../../../arm-none-eabi/lib/thumb/v6-m/libc.a(lib_a-lock.o)
 .ARM.attributes
                0x0000000000000337       0x2c /home/mateus-trix/Ac6/SystemWorkbench/plugins/fr.ac6.mcu.externaltools.arm-none.linux64_1.16.0.201807130628/tools/compiler/bin/../lib/gcc/arm-none-eabi/7.2.1/../../../../arm-none-eabi/lib/thumb/v6-m/libc.a(lib_a-__atexit.o)
 .ARM.attributes
                0x0000000000000363       0x1e /home/mateus-trix/Ac6/SystemWorkbench/plugins/fr.ac6.mcu.externaltools.arm-none.linux64_1.16.0.201807130628/tools/compiler/bin/../lib/gcc/arm-none-eabi/7.2.1/thumb/v6-m/crtn.o
OUTPUT(trixlog-startware.elf elf32-littlearm)

.debug_info     0x0000000000000000     0x3bd1
 .debug_info    0x0000000000000000      0x5f8 StdPeriph_Driver/src/stm32f0xx_gpio.o
 .debug_info    0x00000000000005f8      0x9b8 StdPeriph_Driver/src/stm32f0xx_rcc.o
 .debug_info    0x0000000000000fb0     0x1c78 StdPeriph_Driver/src/stm32f0xx_tim.o
 .debug_info    0x0000000000002c28      0x47a src/delay.o
 .debug_info    0x00000000000030a2      0x312 src/gpio.o
 .debug_info    0x00000000000033b4       0xeb src/main.o
 .debug_info    0x000000000000349f      0x43b src/oneWireSlave.o
 .debug_info    0x00000000000038da      0x2d5 src/system_stm32f0xx.o
 .debug_info    0x0000000000003baf       0x22 startup/startup_stm32f0xx.o

.debug_abbrev   0x0000000000000000      0xb29
 .debug_abbrev  0x0000000000000000      0x18e StdPeriph_Driver/src/stm32f0xx_gpio.o
 .debug_abbrev  0x000000000000018e      0x206 StdPeriph_Driver/src/stm32f0xx_rcc.o
 .debug_abbrev  0x0000000000000394      0x1b7 StdPeriph_Driver/src/stm32f0xx_tim.o
 .debug_abbrev  0x000000000000054b      0x14d src/delay.o
 .debug_abbrev  0x0000000000000698      0x113 src/gpio.o
 .debug_abbrev  0x00000000000007ab       0x8f src/main.o
 .debug_abbrev  0x000000000000083a      0x1a5 src/oneWireSlave.o
 .debug_abbrev  0x00000000000009df      0x138 src/system_stm32f0xx.o
 .debug_abbrev  0x0000000000000b17       0x12 startup/startup_stm32f0xx.o

.debug_aranges  0x0000000000000000      0x628
 .debug_aranges
                0x0000000000000000       0x80 StdPeriph_Driver/src/stm32f0xx_gpio.o
 .debug_aranges
                0x0000000000000080      0x150 StdPeriph_Driver/src/stm32f0xx_rcc.o
 .debug_aranges
                0x00000000000001d0      0x300 StdPeriph_Driver/src/stm32f0xx_tim.o
 .debug_aranges
                0x00000000000004d0       0x48 src/delay.o
 .debug_aranges
                0x0000000000000518       0x20 src/gpio.o
 .debug_aranges
                0x0000000000000538       0x20 src/main.o
 .debug_aranges
                0x0000000000000558       0x78 src/oneWireSlave.o
 .debug_aranges
                0x00000000000005d0       0x30 src/system_stm32f0xx.o
 .debug_aranges
                0x0000000000000600       0x28 startup/startup_stm32f0xx.o

.debug_ranges   0x0000000000000000      0x5a0
 .debug_ranges  0x0000000000000000       0x70 StdPeriph_Driver/src/stm32f0xx_gpio.o
 .debug_ranges  0x0000000000000070      0x140 StdPeriph_Driver/src/stm32f0xx_rcc.o
 .debug_ranges  0x00000000000001b0      0x2f0 StdPeriph_Driver/src/stm32f0xx_tim.o
 .debug_ranges  0x00000000000004a0       0x38 src/delay.o
 .debug_ranges  0x00000000000004d8       0x10 src/gpio.o
 .debug_ranges  0x00000000000004e8       0x10 src/main.o
 .debug_ranges  0x00000000000004f8       0x68 src/oneWireSlave.o
 .debug_ranges  0x0000000000000560       0x20 src/system_stm32f0xx.o
 .debug_ranges  0x0000000000000580       0x20 startup/startup_stm32f0xx.o

.debug_macro    0x0000000000000000     0x198e
 .debug_macro   0x0000000000000000      0x17c StdPeriph_Driver/src/stm32f0xx_gpio.o
 .debug_macro   0x000000000000017c      0x17f StdPeriph_Driver/src/stm32f0xx_gpio.o
 .debug_macro   0x00000000000002fb      0x196 StdPeriph_Driver/src/stm32f0xx_rcc.o
 .debug_macro   0x0000000000000491      0x446 StdPeriph_Driver/src/stm32f0xx_rcc.o
 .debug_macro   0x00000000000008d7      0x198 StdPeriph_Driver/src/stm32f0xx_tim.o
 .debug_macro   0x0000000000000a6f      0x74a StdPeriph_Driver/src/stm32f0xx_tim.o
 .debug_macro   0x00000000000011b9      0x185 src/delay.o
 .debug_macro   0x000000000000133e       0x16 src/delay.o
 .debug_macro   0x0000000000001354      0x178 src/gpio.o
 .debug_macro   0x00000000000014cc      0x180 src/main.o
 .debug_macro   0x000000000000164c       0x3a src/main.o
 .debug_macro   0x0000000000001686      0x194 src/oneWireSlave.o
 .debug_macro   0x000000000000181a      0x174 src/system_stm32f0xx.o

.debug_line     0x0000000000000000     0x3f46
 .debug_line    0x0000000000000000      0x70a StdPeriph_Driver/src/stm32f0xx_gpio.o
 .debug_line    0x000000000000070a      0x93a StdPeriph_Driver/src/stm32f0xx_rcc.o
 .debug_line    0x0000000000001044      0xe71 StdPeriph_Driver/src/stm32f0xx_tim.o
 .debug_line    0x0000000000001eb5      0x66e src/delay.o
 .debug_line    0x0000000000002523      0x5c5 src/gpio.o
 .debug_line    0x0000000000002ae8      0x613 src/main.o
 .debug_line    0x00000000000030fb      0x7af src/oneWireSlave.o
 .debug_line    0x00000000000038aa      0x61b src/system_stm32f0xx.o
 .debug_line    0x0000000000003ec5       0x81 startup/startup_stm32f0xx.o

.debug_str      0x0000000000000000    0x2d302
 .debug_str     0x0000000000000000    0x2bd78 StdPeriph_Driver/src/stm32f0xx_gpio.o
                                      0x2bf26 (size before relaxing)
 .debug_str     0x000000000002bd78      0x619 StdPeriph_Driver/src/stm32f0xx_rcc.o
                                      0x2c27d (size before relaxing)
 .debug_str     0x000000000002c391      0xc2d StdPeriph_Driver/src/stm32f0xx_tim.o
                                      0x2c8f9 (size before relaxing)
 .debug_str     0x000000000002cfbe       0xb4 src/delay.o
                                      0x2bea1 (size before relaxing)
 .debug_str     0x000000000002d072       0x29 src/gpio.o
                                      0x2bdde (size before relaxing)
 .debug_str     0x000000000002d09b       0xb2 src/main.o
                                      0x2bcde (size before relaxing)
 .debug_str     0x000000000002d14d      0x10c src/oneWireSlave.o
                                      0x2be82 (size before relaxing)
 .debug_str     0x000000000002d259       0x7b src/system_stm32f0xx.o
                                      0x2bd06 (size before relaxing)
 .debug_str     0x000000000002d2d4       0x2e startup/startup_stm32f0xx.o
                                         0x62 (size before relaxing)

.comment        0x0000000000000000       0x7e
 .comment       0x0000000000000000       0x7e StdPeriph_Driver/src/stm32f0xx_gpio.o
                                         0x7f (size before relaxing)
 .comment       0x000000000000007e       0x7f StdPeriph_Driver/src/stm32f0xx_rcc.o
 .comment       0x000000000000007e       0x7f StdPeriph_Driver/src/stm32f0xx_tim.o
 .comment       0x000000000000007e       0x7f src/delay.o
 .comment       0x000000000000007e       0x7f src/gpio.o
 .comment       0x000000000000007e       0x7f src/main.o
 .comment       0x000000000000007e       0x7f src/oneWireSlave.o
 .comment       0x000000000000007e       0x7f src/system_stm32f0xx.o

.debug_frame    0x0000000000000000     0x1760
 .debug_frame   0x0000000000000000      0x1b0 StdPeriph_Driver/src/stm32f0xx_gpio.o
 .debug_frame   0x00000000000001b0      0x4e4 StdPeriph_Driver/src/stm32f0xx_rcc.o
 .debug_frame   0x0000000000000694      0xbd4 StdPeriph_Driver/src/stm32f0xx_tim.o
 .debug_frame   0x0000000000001268       0xcc src/delay.o
 .debug_frame   0x0000000000001334       0x30 src/gpio.o
 .debug_frame   0x0000000000001364       0x30 src/main.o
 .debug_frame   0x0000000000001394      0x180 src/oneWireSlave.o
 .debug_frame   0x0000000000001514       0x6c src/system_stm32f0xx.o
 .debug_frame   0x0000000000001580       0x20 /home/mateus-trix/Ac6/SystemWorkbench/plugins/fr.ac6.mcu.externaltools.arm-none.linux64_1.16.0.201807130628/tools/compiler/bin/../lib/gcc/arm-none-eabi/7.2.1/thumb/v6-m/libgcc.a(_udivsi3.o)
 .debug_frame   0x00000000000015a0       0x2c /home/mateus-trix/Ac6/SystemWorkbench/plugins/fr.ac6.mcu.externaltools.arm-none.linux64_1.16.0.201807130628/tools/compiler/bin/../lib/gcc/arm-none-eabi/7.2.1/../../../../arm-none-eabi/lib/thumb/v6-m/libc.a(lib_a-init.o)
 .debug_frame   0x00000000000015cc       0x54 /home/mateus-trix/Ac6/SystemWorkbench/plugins/fr.ac6.mcu.externaltools.arm-none.linux64_1.16.0.201807130628/tools/compiler/bin/../lib/gcc/arm-none-eabi/7.2.1/../../../../arm-none-eabi/lib/thumb/v6-m/libc.a(lib_a-__call_atexit.o)
 .debug_frame   0x0000000000001620       0x28 /home/mateus-trix/Ac6/SystemWorkbench/plugins/fr.ac6.mcu.externaltools.arm-none.linux64_1.16.0.201807130628/tools/compiler/bin/../lib/gcc/arm-none-eabi/7.2.1/../../../../arm-none-eabi/lib/thumb/v6-m/libc.a(lib_a-atexit.o)
 .debug_frame   0x0000000000001648       0x2c /home/mateus-trix/Ac6/SystemWorkbench/plugins/fr.ac6.mcu.externaltools.arm-none.linux64_1.16.0.201807130628/tools/compiler/bin/../lib/gcc/arm-none-eabi/7.2.1/../../../../arm-none-eabi/lib/thumb/v6-m/libc.a(lib_a-fini.o)
 .debug_frame   0x0000000000001674       0xb0 /home/mateus-trix/Ac6/SystemWorkbench/plugins/fr.ac6.mcu.externaltools.arm-none.linux64_1.16.0.201807130628/tools/compiler/bin/../lib/gcc/arm-none-eabi/7.2.1/../../../../arm-none-eabi/lib/thumb/v6-m/libc.a(lib_a-lock.o)
 .debug_frame   0x0000000000001724       0x3c /home/mateus-trix/Ac6/SystemWorkbench/plugins/fr.ac6.mcu.externaltools.arm-none.linux64_1.16.0.201807130628/tools/compiler/bin/../lib/gcc/arm-none-eabi/7.2.1/../../../../arm-none-eabi/lib/thumb/v6-m/libc.a(lib_a-__atexit.o)
